{"abi":[{"type":"constructor","inputs":[{"name":"_usdc","type":"address","internalType":"address"},{"name":"_serviceWallet","type":"address","internalType":"address"},{"name":"_relayer","type":"address","internalType":"address"}],"stateMutability":"nonpayable"},{"type":"function","name":"RENEWAL_GRACE_PERIOD","inputs":[],"outputs":[{"name":"","type":"uint256","internalType":"uint256"}],"stateMutability":"view"},{"type":"function","name":"USDC_UNIT","inputs":[],"outputs":[{"name":"","type":"uint256","internalType":"uint256"}],"stateMutability":"view"},{"type":"function","name":"calculateUpgradeProration","inputs":[{"name":"identityAddress","type":"address","internalType":"address"},{"name":"newPlanId","type":"uint256","internalType":"uint256"},{"name":"isYearly","type":"bool","internalType":"bool"}],"outputs":[{"name":"additionalPayment","type":"uint256","internalType":"uint256"}],"stateMutability":"view"},{"type":"function","name":"cancelFor","inputs":[{"name":"user","type":"address","internalType":"address"},{"name":"identityAddress","type":"address","internalType":"address"},{"name":"nonce","type":"uint256","internalType":"uint256"},{"name":"sig","type":"bytes","internalType":"bytes"}],"outputs":[],"stateMutability":"nonpayable"},{"type":"function","name":"cancelNonces","inputs":[{"name":"","type":"address","internalType":"address"}],"outputs":[{"name":"","type":"uint256","internalType":"uint256"}],"stateMutability":"view"},{"type":"function","name":"cancelSubscription","inputs":[{"name":"identityAddress","type":"address","internalType":"address"}],"outputs":[],"stateMutability":"nonpayable"},{"type":"function","name":"disablePlan","inputs":[{"name":"planId","type":"uint256","internalType":"uint256"}],"outputs":[],"stateMutability":"nonpayable"},{"type":"function","name":"eip712Domain","inputs":[],"outputs":[{"name":"fields","type":"bytes1","internalType":"bytes1"},{"name":"name","type":"string","internalType":"string"},{"name":"version","type":"string","internalType":"string"},{"name":"chainId","type":"uint256","internalType":"uint256"},{"name":"verifyingContract","type":"address","internalType":"address"},{"name":"salt","type":"bytes32","internalType":"bytes32"},{"name":"extensions","type":"uint256[]","internalType":"uint256[]"}],"stateMutability":"view"},{"type":"function","name":"executeRenewal","inputs":[{"name":"identityAddress","type":"address","internalType":"address"}],"outputs":[],"stateMutability":"nonpayable"},{"type":"function","name":"getPlan","inputs":[{"name":"planId","type":"uint256","internalType":"uint256"}],"outputs":[{"name":"","type":"tuple","internalType":"struct VPNSubscription.Plan","components":[{"name":"name","type":"string","internalType":"string"},{"name":"pricePerMonth","type":"uint256","internalType":"uint256"},{"name":"pricePerYear","type":"uint256","internalType":"uint256"},{"name":"period","type":"uint256","internalType":"uint256"},{"name":"trafficLimitDaily","type":"uint256","internalType":"uint256"},{"name":"trafficLimitMonthly","type":"uint256","internalType":"uint256"},{"name":"tier","type":"uint8","internalType":"uint8"},{"name":"isActive","type":"bool","internalType":"bool"}]}],"stateMutability":"view"},{"type":"function","name":"getSubscription","inputs":[{"name":"identityAddress","type":"address","internalType":"address"}],"outputs":[{"name":"","type":"tuple","internalType":"struct VPNSubscription.Subscription","components":[{"name":"identityAddress","type":"address","internalType":"address"},{"name":"payerAddress","type":"address","internalType":"address"},{"name":"lockedPrice","type":"uint96","internalType":"uint96"},{"name":"planId","type":"uint256","internalType":"uint256"},{"name":"lockedPeriod","type":"uint256","internalType":"uint256"},{"name":"startTime","type":"uint256","internalType":"uint256"},{"name":"expiresAt","type":"uint256","internalType":"uint256"},{"name":"renewedAt","type":"uint256","internalType":"uint256"},{"name":"autoRenewEnabled","type":"bool","internalType":"bool"}]}],"stateMutability":"view"},{"type":"function","name":"getUserActiveSubscriptions","inputs":[{"name":"user","type":"address","internalType":"address"}],"outputs":[{"name":"","type":"tuple[]","internalType":"struct VPNSubscription.Subscription[]","components":[{"name":"identityAddress","type":"address","internalType":"address"},{"name":"payerAddress","type":"address","internalType":"address"},{"name":"lockedPrice","type":"uint96","internalType":"uint96"},{"name":"planId","type":"uint256","internalType":"uint256"},{"name":"lockedPeriod","type":"uint256","internalType":"uint256"},{"name":"startTime","type":"uint256","internalType":"uint256"},{"name":"expiresAt","type":"uint256","internalType":"uint256"},{"name":"renewedAt","type":"uint256","internalType":"uint256"},{"name":"autoRenewEnabled","type":"bool","internalType":"bool"}]}],"stateMutability":"view"},{"type":"function","name":"getUserIdentities","inputs":[{"name":"user","type":"address","internalType":"address"}],"outputs":[{"name":"","type":"address[]","internalType":"address[]"}],"stateMutability":"view"},{"type":"function","name":"identityToOwner","inputs":[{"name":"","type":"address","internalType":"address"}],"outputs":[{"name":"","type":"address","internalType":"address"}],"stateMutability":"view"},{"type":"function","name":"intentNonces","inputs":[{"name":"","type":"address","internalType":"address"}],"outputs":[{"name":"","type":"uint256","internalType":"uint256"}],"stateMutability":"view"},{"type":"function","name":"owner","inputs":[],"outputs":[{"name":"","type":"address","internalType":"address"}],"stateMutability":"view"},{"type":"function","name":"pause","inputs":[],"outputs":[],"stateMutability":"nonpayable"},{"type":"function","name":"paused","inputs":[],"outputs":[{"name":"","type":"bool","internalType":"bool"}],"stateMutability":"view"},{"type":"function","name":"permitAndSubscribe","inputs":[{"name":"user","type":"address","internalType":"address"},{"name":"identityAddress","type":"address","internalType":"address"},{"name":"planId","type":"uint256","internalType":"uint256"},{"name":"isYearly","type":"bool","internalType":"bool"},{"name":"maxAmount","type":"uint256","internalType":"uint256"},{"name":"permitDeadline","type":"uint256","internalType":"uint256"},{"name":"intentNonce","type":"uint256","internalType":"uint256"},{"name":"intentSig","type":"bytes","internalType":"bytes"},{"name":"permitV","type":"uint8","internalType":"uint8"},{"name":"permitR","type":"bytes32","internalType":"bytes32"},{"name":"permitS","type":"bytes32","internalType":"bytes32"}],"outputs":[],"stateMutability":"nonpayable"},{"type":"function","name":"plans","inputs":[{"name":"","type":"uint256","internalType":"uint256"}],"outputs":[{"name":"name","type":"string","internalType":"string"},{"name":"pricePerMonth","type":"uint256","internalType":"uint256"},{"name":"pricePerYear","type":"uint256","internalType":"uint256"},{"name":"period","type":"uint256","internalType":"uint256"},{"name":"trafficLimitDaily","type":"uint256","internalType":"uint256"},{"name":"trafficLimitMonthly","type":"uint256","internalType":"uint256"},{"name":"tier","type":"uint8","internalType":"uint8"},{"name":"isActive","type":"bool","internalType":"bool"}],"stateMutability":"view"},{"type":"function","name":"relayer","inputs":[],"outputs":[{"name":"","type":"address","internalType":"address"}],"stateMutability":"view"},{"type":"function","name":"renewWithAuthorization","inputs":[{"name":"identityAddress","type":"address","internalType":"address"},{"name":"validAfter","type":"uint256","internalType":"uint256"},{"name":"validBefore","type":"uint256","internalType":"uint256"},{"name":"nonce","type":"bytes32","internalType":"bytes32"},{"name":"v","type":"uint8","internalType":"uint8"},{"name":"r","type":"bytes32","internalType":"bytes32"},{"name":"s","type":"bytes32","internalType":"bytes32"}],"outputs":[],"stateMutability":"nonpayable"},{"type":"function","name":"renounceOwnership","inputs":[],"outputs":[],"stateMutability":"nonpayable"},{"type":"function","name":"serviceWallet","inputs":[],"outputs":[{"name":"","type":"address","internalType":"address"}],"stateMutability":"view"},{"type":"function","name":"setPlan","inputs":[{"name":"id","type":"uint256","internalType":"uint256"},{"name":"name","type":"string","internalType":"string"},{"name":"pricePerMonth","type":"uint256","internalType":"uint256"},{"name":"pricePerYear","type":"uint256","internalType":"uint256"},{"name":"period","type":"uint256","internalType":"uint256"},{"name":"trafficLimitDaily","type":"uint256","internalType":"uint256"},{"name":"trafficLimitMonthly","type":"uint256","internalType":"uint256"},{"name":"tier","type":"uint8","internalType":"uint8"},{"name":"active","type":"bool","internalType":"bool"}],"outputs":[],"stateMutability":"nonpayable"},{"type":"function","name":"setRelayer","inputs":[{"name":"r","type":"address","internalType":"address"}],"outputs":[],"stateMutability":"nonpayable"},{"type":"function","name":"setServiceWallet","inputs":[{"name":"w","type":"address","internalType":"address"}],"outputs":[],"stateMutability":"nonpayable"},{"type":"function","name":"subscriptions","inputs":[{"name":"","type":"address","internalType":"address"}],"outputs":[{"name":"identityAddress","type":"address","internalType":"address"},{"name":"payerAddress","type":"address","internalType":"address"},{"name":"lockedPrice","type":"uint96","internalType":"uint96"},{"name":"planId","type":"uint256","internalType":"uint256"},{"name":"lockedPeriod","type":"uint256","internalType":"uint256"},{"name":"startTime","type":"uint256","internalType":"uint256"},{"name":"expiresAt","type":"uint256","internalType":"uint256"},{"name":"renewedAt","type":"uint256","internalType":"uint256"},{"name":"autoRenewEnabled","type":"bool","internalType":"bool"}],"stateMutability":"view"},{"type":"function","name":"transferOwnership","inputs":[{"name":"newOwner","type":"address","internalType":"address"}],"outputs":[],"stateMutability":"nonpayable"},{"type":"function","name":"unpause","inputs":[],"outputs":[],"stateMutability":"nonpayable"},{"type":"function","name":"upgradeSubscription","inputs":[{"name":"user","type":"address","internalType":"address"},{"name":"identityAddress","type":"address","internalType":"address"},{"name":"newPlanId","type":"uint256","internalType":"uint256"},{"name":"isYearly","type":"bool","internalType":"bool"},{"name":"maxAmount","type":"uint256","internalType":"uint256"},{"name":"deadline","type":"uint256","internalType":"uint256"},{"name":"nonce","type":"uint256","internalType":"uint256"},{"name":"intentSig","type":"bytes","internalType":"bytes"},{"name":"permitV","type":"uint8","internalType":"uint8"},{"name":"permitR","type":"bytes32","internalType":"bytes32"},{"name":"permitS","type":"bytes32","internalType":"bytes32"}],"outputs":[],"stateMutability":"nonpayable"},{"type":"function","name":"usdc","inputs":[],"outputs":[{"name":"","type":"address","internalType":"contract IERC20Permit"}],"stateMutability":"view"},{"type":"function","name":"userIdentities","inputs":[{"name":"","type":"address","internalType":"address"},{"name":"","type":"uint256","internalType":"uint256"}],"outputs":[{"name":"","type":"address","internalType":"address"}],"stateMutability":"view"},{"type":"event","name":"EIP712DomainChanged","inputs":[],"anonymous":false},{"type":"event","name":"OwnershipTransferred","inputs":[{"name":"previousOwner","type":"address","indexed":true,"internalType":"address"},{"name":"newOwner","type":"address","indexed":true,"internalType":"address"}],"anonymous":false},{"type":"event","name":"Paused","inputs":[{"name":"account","type":"address","indexed":false,"internalType":"address"}],"anonymous":false},{"type":"event","name":"RenewalFailed","inputs":[{"name":"payer","type":"address","indexed":true,"internalType":"address"},{"name":"identity","type":"address","indexed":true,"internalType":"address"},{"name":"reason","type":"string","indexed":false,"internalType":"string"}],"anonymous":false},{"type":"event","name":"SubscriptionCancelled","inputs":[{"name":"payer","type":"address","indexed":true,"internalType":"address"},{"name":"identity","type":"address","indexed":true,"internalType":"address"}],"anonymous":false},{"type":"event","name":"SubscriptionCreated","inputs":[{"name":"payer","type":"address","indexed":true,"internalType":"address"},{"name":"identity","type":"address","indexed":true,"internalType":"address"},{"name":"planId","type":"uint256","indexed":false,"internalType":"uint256"},{"name":"lockedPrice","type":"uint96","indexed":false,"internalType":"uint96"},{"name":"lockedPeriod","type":"uint256","indexed":false,"internalType":"uint256"},{"name":"expiresAt","type":"uint256","indexed":false,"internalType":"uint256"}],"anonymous":false},{"type":"event","name":"SubscriptionRenewed","inputs":[{"name":"payer","type":"address","indexed":true,"internalType":"address"},{"name":"identity","type":"address","indexed":true,"internalType":"address"},{"name":"newExpiresAt","type":"uint256","indexed":false,"internalType":"uint256"}],"anonymous":false},{"type":"event","name":"SubscriptionUpgraded","inputs":[{"name":"payer","type":"address","indexed":true,"internalType":"address"},{"name":"identity","type":"address","indexed":true,"internalType":"address"},{"name":"newPlanId","type":"uint256","indexed":false,"internalType":"uint256"},{"name":"additionalPayment","type":"uint256","indexed":false,"internalType":"uint256"}],"anonymous":false},{"type":"event","name":"Unpaused","inputs":[{"name":"account","type":"address","indexed":false,"internalType":"address"}],"anonymous":false},{"type":"error","name":"ECDSAInvalidSignature","inputs":[]},{"type":"error","name":"ECDSAInvalidSignatureLength","inputs":[{"name":"length","type":"uint256","internalType":"uint256"}]},{"type":"error","name":"ECDSAInvalidSignatureS","inputs":[{"name":"s","type":"bytes32","internalType":"bytes32"}]},{"type":"error","name":"EnforcedPause","inputs":[]},{"type":"error","name":"ExpectedPause","inputs":[]},{"type":"error","name":"InvalidShortString","inputs":[]},{"type":"error","name":"OwnableInvalidOwner","inputs":[{"name":"owner","type":"address","internalType":"address"}]},{"type":"error","name":"OwnableUnauthorizedAccount","inputs":[{"name":"account","type":"address","internalType":"address"}]},{"type":"error","name":"ReentrancyGuardReentrantCall","inputs":[]},{"type":"error","name":"StringTooLong","inputs":[{"name":"str","type":"string","internalType":"string"}]}],"bytecode":{"object":"0x61018034620008ec57601f6200409938819003918201601f19168301916001600160401b038311848410176200072a57808492606094604052833981010312620008ec576200004e8162000929565b906200006b6040620000636020840162000929565b920162000929565b90604051926200007b846200090d565b600f84526e2b282729bab139b1b934b83a34b7b760891b602085015260405193620000a6856200090d565b600185526020850190601960f91b82523315620008d4575f8054336001600160a01b0319821681178355916001600160a01b03909116907f8be0079c531659141344cd1fd0a4f28419497f9722a3daafe3b4186f6b6457e09080a360017f9b779b17422d0df92223018b32b4d1fa46e071723d6817e2486d003becc55f005562000130816200093e565b610120526200013f8662000af3565b6101405260208151910120948560e05251902080610100524660a052604051947f8b73c3c69bb8fe3d512ecc4cf759cc79239f7b179b0ffacaa9a75d522b39400f6020870152604086015260608501524660808501523060a085015260a084528360c081011060018060401b0360c0860111176200072a5760c0848101604081905285516020870120608052309091526001600160a01b0391821661016052600380549383166001600160a01b0319948516179055600480549490921693909216929092179091556200021290620008f0565b60405162000220816200090d565b600580825264426173696360d81b60208084019190915260c08401928352624c4b4060e08501526302faf08061010085015262278d006101208501525f6101408501819052641900000000610160860152600161018086018190526101a086015260029052525180517f89832631fb3c3307a103ba2c84ab569c64d6182a18893dcd163f0f1c2090733a92916001600160401b0382116200072a578354600181811c91168015620008c9575b60208210146200070b57601f811162000883575b50602090601f8311600114620008155760069392915f918362000809575b50508160011b915f199060031b1c19161783555b60e08101516001840155610100810151600284015561012081015160038401556101408101516004840155610160810151600584015560ff6101808201511661ff006101a084860154930151151560081b169161ffff191617179101556040516200037d81620008f0565b6040516200038b816200090d565b60078152665072656d69756d60c81b602082015281526298968060208201526305f5e100604082015262278d0060608201525f60808201525f60a0820152600260c0820152600160e082015260035f52600560205260405f20815180519060018060401b0382116200072a578254600181811c91168015620007fe575b60208210146200070b57601f8111620007b8575b50602090601f83116001146200074a5760069392915f91836200073e575b50508160011b915f199060031b1c19161781555b6020830151600182015560408301516002820155606083015160038201556080830151600482015560a08301516005820155019060ff60c08201511661ff0060e08454930151151560081b169161ffff191617179055604051620004b281620008f0565b604051620004c0816200090d565b600481526315195cdd60e21b60208201528152620186a0806020830152604082015261070860608201525f60808201525f60a0820152606360c0820152600160e082015260045f52600560205260405f20815180519060018060401b0382116200072a578254600181811c911680156200071f575b60208210146200070b57601f8111620006c1575b50602090601f8311600114620006555760069392915f918362000649575b50508160011b915f199060031b1c19161781555b6020830151600182015560408301516002820155606083015160038201556080830151600482015560a08301516005820155019060ff60c08201511661ff0060e08454930151151560081b169161ffff1916171790556040516133f8908162000ca1823960805181612fb6015260a05181613081015260c05181612f80015260e051816130050152610100518161302b015261012051816115ce015261014051816115f701526101605181818161050e01528181610e9d01528181611437015281816119b00152612bc50152f35b015190505f8062000567565b90601f19831691845f5260205f20925f5b818110620006a857509160019391856006979694106200068f575b505050811b0181556200057b565b01515f1960f88460031b161c191690555f808062000681565b9293602060018192878601518155019501930162000666565b835f5260205f20601f840160051c8101916020851062000700575b601f0160051c01905b818110620006f4575062000549565b5f8155600101620006e5565b9091508190620006dc565b634e487b7160e01b5f52602260045260245ffd5b90607f169062000535565b634e487b7160e01b5f52604160045260245ffd5b015190505f806200043a565b90835f5260205f20915f5b601f19851681106200079f575091839160019360069695601f1981161062000786575b505050811b0181556200044e565b01515f1960f88460031b161c191690555f808062000778565b9192602060018192868501518155019401920162000755565b835f5260205f20601f840160051c810160208510620007f6575b601f830160051c82018110620007ea5750506200041c565b5f8155600101620007d2565b5080620007d2565b90607f169062000408565b015190505f80620002fe565b90845f5260205f20915f5b601f19851681106200086a575091839160019360069695601f1981161062000851575b505050811b01835562000312565b01515f1960f88460031b161c191690555f808062000843565b9192602060018192868501518155019401920162000820565b845f5260205f20601f840160051c810160208510620008c1575b601f830160051c82018110620008b5575050620002e0565b5f81556001016200089d565b50806200089d565b90607f1690620002cc565b604051631e4fbdf760e01b81525f6004820152602490fd5b5f80fd5b61010081019081106001600160401b038211176200072a57604052565b604081019081106001600160401b038211176200072a57604052565b51906001600160a01b0382168203620008ec57565b805160209081811015620009d85750601f8251116200097957808251920151908083106200096b57501790565b825f19910360031b1b161790565b90604051809263305a27a960e01b82528060048301528251908160248401525f935b828510620009be575050604492505f838284010152601f80199101168101030190fd5b84810182015186860160440152938101938593506200099b565b9192916001600160401b0381116200072a5760019182548381811c9116801562000ae8575b828210146200070b57601f811162000ab2575b5080601f831160011462000a4e5750819293945f9262000a42575b50505f19600383901b1c191690821b17905560ff90565b015190505f8062000a2b565b90601f19831695845f52825f20925f905b88821062000a9a575050838596971062000a81575b505050811b01905560ff90565b01515f1960f88460031b161c191690555f808062000a74565b80878596829496860151815501950193019062000a5f565b835f5283601f835f20920160051c820191601f850160051c015b82811062000adc57505062000a10565b5f815501849062000acc565b90607f1690620009fd565b80516020908181101562000b7f5750601f82511162000b2057808251920151908083106200096b57501790565b90604051809263305a27a960e01b82528060048301528251908160248401525f935b82851062000b65575050604492505f838284010152601f80199101168101030190fd5b848101820151868601604401529381019385935062000b42565b906001600160401b0382116200072a57600254926001938481811c9116801562000c95575b838210146200070b57601f811162000c5e575b5081601f841160011462000bf657509282939183925f9462000bea575b50501b915f199060031b1c19161760025560ff90565b015192505f8062000bd4565b919083601f19811660025f52845f20945f905b8883831062000c43575050501062000c2a575b505050811b0160025560ff90565b01515f1960f88460031b161c191690555f808062000c1c565b85870151885590960195948501948793509081019062000c09565b60025f5284601f845f20920160051c820191601f860160051c015b82811062000c8957505062000bb7565b5f815501859062000c79565b90607f169062000ba456fe6080806040526004361015610012575f80fd5b5f905f3560e01c90816302e088d3146120a45750806308cff7e2146120165780630cbebc2414611fc757806315df774f14611d915780632203faa214611ce457806323bffccc14611ca157806325ebaf4114611b0557806326cd5274146119df5780633e413bee1461199b5780633f4ba83a1461192c5780634af286761461190f5780634e118df5146118d65780635641f3c3146118ae5780635c975abb1461188a578063645e5d951461184c5780636548e9bc14611809578063715018a6146117b257806382e10e7f1461175b5780638406c079146117335780638456cb59146116d357806384b0196e146115b95780638da5cb5b146115925780638ddf0cfb1461135e57806393d81d58146112ce578063af6c0b6414611109578063b162061614611064578063bc0a47d214610b64578063bc247c8c14610b09578063bde7d84b14610ad0578063e1284768146102e7578063f046395a1461024c578063f2fde38b146101c45763f5e4700114610189575f80fd5b346101c15760203660031901126101c1576020906040906001600160a01b036101b06120bf565b168152600a83522054604051908152f35b80fd5b50346101c15760203660031901126101c1576101de6120bf565b6101e6612e3d565b6001600160a01b03908116908115610233575f54826001600160601b0360a01b8216175f55167f8be0079c531659141344cd1fd0a4f28419497f9722a3daafe3b4186f6b6457e05f80a380f35b604051631e4fbdf760e01b815260048101849052602490fd5b50346101c15760203660031901126101c157610120906001600160a01b0390604090826102776120bf565b16815260066020522090808254169160018101546002820154600383015460048401549160058501549360ff6007600688015497015416966040519889528116602089015260a01c60408801526060870152608086015260a085015260c084015260e08301521515610100820152f35b50346101c1576102f636612369565b92979691959461031760018060a09d9c9d9794971b036004541633146124ec565b61031f612e68565b610327612e88565b6001600160a01b038a1615610a9357428610610a58578a8d52600560205260408d209860ff60066040519b61035b8d612140565b6040516103738161036c81856122d8565b03826121a6565b8d52600181015460208e0152600281015460408e0152600381015460608e0152600481015460808e0152600581015460a08e0152015481811660c08d015260081c1615801560e08c0152610a13576001600160a01b038b168e52600660205260408e206005015442106109cf578d9989156109c45760408101519a5b5089156109ba57506301e13380985b8a851061097c576001600160601b038b11610941576001600160a01b038e168f52600960205260408f205483036108fc576104d4936104bd8f8f8f90966104c5956104cb986040519360208501957f7f0c7c4eb18755821feb184f761fd16cdc39d7bcfbddf992cd88cbdfed6e9b6b875260018060a01b0316604086015260018060a01b031660608501526080840152151560a08301528960c08301528c60e083015261010082015261010081526104b58161216f565b519020612eb7565b9236916121c7565b906130a7565b909291926130e1565b6001600160a01b038b81169116036108b7576001600160a01b038a168b52600960205260408b2080548c94919061050a90612675565b90557f00000000000000000000000000000000000000000000000000000000000000006001600160a01b031695863b156108b35760405163d505accf60e01b81526001600160a01b038d1660048201523060248201526044810193909352606483019590955260ff909416608482015260a481019390935260c4830152808260e48183875af19182156108a657859261088b575b50506003546040516323b872dd60e01b81526001600160a01b0389811660048301529091166024820152604481019190915290602090829060649082908b905af18015610880576105f6918891610851575b50612af7565b6001600160a01b03838116875260076020526040872080546001600160a01b03191691871691909117905561062b8142612a26565b604051906106388261216f565b6001600160a01b0385811680845288821660208086019182526001600160601b0388166040808801918252606088018c9052608088018990524260a0808a0182905260c08a019890985260e08901526001610100808a01829052958f5260069093528d20875181549087166001600160a01b03199182161782559351915191909516951b9091169390931792820192909255600790606084015160028201556080840151600382015560a0840151600482015560c0840151600582015560e0840151600682015501910151151560ff8019835416911617905560018060a01b038516865260086020526040862054158015610840575b6107a6575b91608091836001600160601b0361076b7f09157a46b1de39a8a2b4d8079fcbc4a68d54097206974b43e1bac11f02daa0699642612a26565b6040805198895291909316602088015286015260608501526001600160a01b03908116941692a360015f805160206133a38339815191525580f35b6001600160a01b03851686526008602052604086208054906801000000000000000082101561082c5791610805827f09157a46b1de39a8a2b4d8079fcbc4a68d54097206974b43e1bac11f02daa0699694600160809795018155612277565b81546001600160a01b0386811660039390931b92831b921b19161790559193509150610733565b634e487b7160e01b88526041600452602488fd5b5061084b8386612edd565b1561072e565b610873915060203d602011610879575b61086b81836121a6565b810190612adf565b5f6105f0565b503d610861565b6040513d89823e3d90fd5b61089691925061215c565b6108a25782875f61059e565b8680fd5b50604051903d90823e3d90fd5b8480fd5b60405162461bcd60e51b815260206004820152601d60248201527f56504e3a20696e76616c696420696e74656e74207369676e61747572650000006044820152606490fd5b60405162461bcd60e51b815260206004820152601960248201527f56504e3a20696e76616c696420696e74656e74206e6f6e6365000000000000006044820152606490fd5b60405162461bcd60e51b815260206004820152601360248201527256504e3a207072696365206f766572666c6f7760681b6044820152606490fd5b60405162461bcd60e51b815260206004820152601660248201527556504e3a206d6178416d6f756e7420746f6f206c6f7760501b6044820152606490fd5b60600151986103fe565b60208101519a6103ef565b606460405162461bcd60e51b815260206004820152602060248201527f56504e3a206964656e7469747920616c726561647920737562736372696265646044820152fd5b60405162461bcd60e51b815260206004820152601760248201527f56504e3a20706c616e206e6f7420617661696c61626c650000000000000000006044820152606490fd5b60405162461bcd60e51b81526020600482015260136024820152721594138e881c195c9b5a5d08195e1c1a5c9959606a1b6044820152606490fd5b60405162461bcd60e51b815260206004820152601560248201527456504e3a20696e76616c6964206964656e7469747960581b6044820152606490fd5b50346101c15760203660031901126101c1576020906040906001600160a01b03610af86120bf565b168152600983522054604051908152f35b50346101c15760203660031901126101c157610b50610b266120bf565b610b3b60018060a01b036004541633146124ec565b610b43612e68565b610b4b612e88565b612b3a565b60015f805160206133a38339815191525580f35b50346101c157610b7336612369565b909398999794959192610b9160018060a01b036004541633146124ec565b610b99612e68565b610ba1612e88565b428310611027578c998c8c8c99600160a01b600190038d168b5260066020528160408c209b8c42906005015411610bd790612683565b60018d0154610bf3906001600160a01b0387811691161461256d565b528d6005602052604090209d6040519e8f90610c0e82612140565b60405180610c1c81846122d8565b03610c2790826121a6565b825260018101546020830152600281015460408301526003810154606083015260048101546080830152600581015460a0830152600601549060c081019160ff8116835260081c60ff16151560e081920152610c8290612703565b5160ff1660028d015482526005602052604082206006015460ff1610610ca7906126c1565b6001600160a01b038416815260096020526040902054610cc89082146125ef565b6040519160208301937f7e3209f2d7645f294fdd6e5e916cafc3281bb65a36e88ad5052c112566dd110b8552600160a01b600190031660408401528d600160a01b60019003166060840152608083015289151560a08301528b60c08301528660e083015261010090818301528152610d3f8161216f565b519020610d4b90612eb7565b913690610d57926121c7565b610d60916130a7565b610d69916130e1565b610d80906001600160a01b038d8116911614612630565b6001600160a01b038b168c52600960205260408c208054610da090612675565b9055610dad858b8a61278d565b96808811610fe9578c9488610e95575b505050505063ffffffff6040959493927fe03b7ecf6d4cbfb407971a905628826ca89b04d4b413c2c8c178fbf88ebcf57d9760039350815f14610e8b57870151905b15610e7657610e456001600160601b036301e13380925b600287018c90556001870180546001600160a01b03169290911660a01b6001600160a01b031916919091179055565b16910155825194855260208501526001600160a01b03908116941692a360015f805160206133a38339815191525580f35b610e456001600160601b0362278d0092610e16565b6020015190610dff565b9498979695947f00000000000000000000000000000000000000000000000000000000000000006001600160a01b031694853b15610fe55760405163d505accf60e01b81526001600160a01b038f1660048201523060248201526044810193909352606483019490945260ff909316608482015260a481019290925260c4820152868160e48183865af180156108805785918891610fca575b50506003546040516323b872dd60e01b81526001600160a01b038c811660048301529091166024820152604481019190915290602090829060649082908a905af1918215610fbf577fe03b7ecf6d4cbfb407971a905628826ca89b04d4b413c2c8c178fbf88ebcf57d97610fb260039463ffffffff9460409a916108515750612af7565b9781949596978c94610dbd565b6040513d88823e3d90fd5b610fd591925061215c565b610fe15783865f610f2e565b8580fd5b8a80fd5b60405162461bcd60e51b81526020600482015260166024820152751594138e88195e18d959591cc81b585e105b5bdd5b9d60521b6044820152606490fd5b60405162461bcd60e51b81526020600482015260156024820152741594138e88191958591b1a5b9948195e1c1a5c9959605a1b6044820152606490fd5b50346101c15760203660031901126101c15760406110d8916004358152600560205220604051906110a08261109981846122d8565b03836121a6565b60ff60018201549160028101549060038101546004820154906006600584015493015493604051988998610100808b528a0190612239565b96602089015260408801526060870152608086015260a085015281811660c085015260081c16151560e08301520390f35b50346101c1576020806003193601126112ca576001600160a01b038061112d6120bf565b168352600882526040832091604051808483829654938481520190875283872092875b858282106112b257505050611167925003846121a6565b8391845b84518110156111b2578161117f8287612acb565b51168652600683524260056040882001541161119e575b60010161116b565b926111aa600191612675565b939050611196565b50906111d66111c084612980565b936111ce60405195866121a6565b808552612980565b601f190181865b82811061129c575050508491855b855181101561125257816111ff8288612acb565b51168752600683526040872042600582015411611220575b506001016111eb565b6001919461123061124b92612435565b61123a8289612acb565b526112458188612acb565b50612675565b9390611217565b60408051848152865181860181905287860192820190868b5b8281106112785784840385f35b909192826101208261128d6001948a516120d5565b0196019101949291909461126b565b6112a46123f2565b8282880101520182906111dd565b85548816845260019586019589955093019201611150565b5080fd5b50346101c15760203660031901126101c1576001600160a01b036007816112f36120bf565b1691828452600660205261132160408520916113146005840154151561252b565b600183015416331461256d565b01805461133060ff82166125aa565b60ff19169055337f4f63ff9c987ba9233a93b549bdb283252838f696fe1349ef76a85e2ae7f822e38380a380f35b503461157a5760e036600319011261157a576113786120bf565b6084359060ff821680920361157a576004546001600160a01b039182916113a290831633146124ec565b6113aa612e68565b6113b2612e88565b1691825f52600660205260405f2090600582019182546113d381151561252b565b6113e360ff600784015416612997565b6113ef814210156129e3565b6203f480810180911161157e5761140890421115612a33565b6006810191600183549261142d6114256003830195865490612a26565b421015612a7f565b01549480861695817f000000000000000000000000000000000000000000000000000000000000000016916003541691803b1561157a575f92836101249260405196879586946371f70b0760e11b86528d6004870152602486015260a01c60448501526024356064850152604435608485015260643560a485015260c484015260a43560e484015260c4356101048401525af1801561156f57611533575b509160209161150b7f2b956d6196f460d042bd64fb7aa1d23596fcd80b7277ea28bb620c5d02381d8e9483548042115f1461152d575042905b5490612a26565b91829142905555604051908152a360015f805160206133a38339815191525580f35b90611504565b7f2b956d6196f460d042bd64fb7aa1d23596fcd80b7277ea28bb620c5d02381d8e939196509161156460209361215c565b5f96919350916114cb565b6040513d5f823e3d90fd5b5f80fd5b634e487b7160e01b5f52601160045260245ffd5b3461157a575f36600319011261157a575f546040516001600160a01b039091168152602090f35b3461157a575f36600319011261157a576115f27f0000000000000000000000000000000000000000000000000000000000000000613164565b61161b7f0000000000000000000000000000000000000000000000000000000000000000613263565b6040516020808201928284106001600160401b038511176116bf57916020611674859461166697966040525f8452604051978897600f60f81b895260e0858a015260e0890190612239565b908782036040890152612239565b914660608701523060808701525f60a087015285830360c087015251918281520192915f5b8281106116a857505050500390f35b835185528695509381019392810192600101611699565b634e487b7160e01b5f52604160045260245ffd5b3461157a575f36600319011261157a576116eb612e3d565b6116f3612e68565b5f805460ff60a01b1916600160a01b1790556040513381527f62e78cea01bee320cd4e420270b5ea74000d11b0c9f74754ebdbfc544b05a25890602090a1005b3461157a575f36600319011261157a576004546040516001600160a01b039091168152602090f35b3461157a57604036600319011261157a576117746120bf565b6024359060018060a01b038091165f52600860205260405f20805483101561157a576020926117a291612277565b9190546040519260031b1c168152f35b3461157a575f36600319011261157a576117ca612e3d565b5f80546001600160a01b0319811682556001600160a01b03167f8be0079c531659141344cd1fd0a4f28419497f9722a3daafe3b4186f6b6457e08280a3005b3461157a57602036600319011261157a576118226120bf565b61182a612e3d565b600480546001600160a01b0319166001600160a01b0392909216919091179055005b3461157a57606036600319011261157a576118656120bf565b60443590811515820361157a57602091611882916024359061278d565b604051908152f35b3461157a575f36600319011261157a57602060ff5f5460a01c166040519015158152f35b3461157a575f36600319011261157a576003546040516001600160a01b039091168152602090f35b3461157a57602036600319011261157a5760206001600160a01b03806118fa6120bf565b165f526007825260405f205416604051908152f35b3461157a575f36600319011261157a576020604051620f42408152f35b3461157a575f36600319011261157a57611944612e3d565b5f5460ff8160a01c16156119895760ff60a01b19165f556040513381527f5db9ee0a495bf2e6ff9c91a7834c1ba4fdd244a5e8aa4e537bd38aeae4b073aa90602090a1005b604051638dfc202b60e01b8152600490fd5b3461157a575f36600319011261157a576040517f00000000000000000000000000000000000000000000000000000000000000006001600160a01b03168152602090f35b3461157a5760208060031936011261157a57611ad4905f60e0604051611a0481612140565b6060815282848201528260408201528260608201528260808201528260a08201528260c082015201526004355f526005815260405f2060405191611a4783612140565b604051611a588161036c81866122d8565b835260018201549181840192835260ff60028201546040860190815260038301549260608701938452600481015460808801908152600660058301549260a08a0193845201549460c089019385871685528560e08b019760081c16151587526040519a8b9a898c5251610100809a8d01526101208c0190612239565b985160408b01525160608a01525160808901525160a08801525160c0870152511660e0850152511515908301520390f35b3461157a57608036600319011261157a57611b1e6120bf565b6024356001600160a01b03818116929183900361157a57604435906001600160401b0360643581811161157a57611b5990369060040161220c565b929091611b6b826004541633146124ec565b611b73612e68565b611b7b612e88565b865f526006602052600760405f20611b986005820154151561252b565b611bad8480600184015416991680991461256d565b0194611bbc60ff8754166125aa565b865f52600a602052611bd360405f205482146125ef565b6040519460208601917f32228b2562467e640100427c26ad2149c3c00e64d57bc2d7c1c1764a2bdd0723835288604088015289606088015260808701526080865260a0860192868410908411176116bf576104c588956104bd6104cb94611c4a99611c4397604052519020612eb7565b1614612630565b815f52600a60205260405f20611c608154612675565b9055805460ff191690557f4f63ff9c987ba9233a93b549bdb283252838f696fe1349ef76a85e2ae7f822e35f80a360015f805160206133a383398151915255005b3461157a57602036600319011261157a57611cba6120bf565b611cc2612e3d565b600380546001600160a01b0319166001600160a01b0392909216919091179055005b3461157a5760208060031936011261157a576001600160a01b039081611d086120bf565b165f526008815260405f20604051918281835491828152019081935f52825f20905f5b818110611d7b5750505083611d419103846121a6565b6040519281840190828552518091526040840192915f5b828110611d655785850386f35b8351871685529381019392810192600101611d58565b8254881684529284019260019283019201611d2b565b3461157a5761012036600319011261157a576001600160401b0360243581811161157a573660238201121561157a57611dd49036906024816004013591016121c7565b6044359060643560e4359360ff851680950361157a57610104359384151580950361157a57611e01612e3d565b611e206001600160601b03611e18818411156124a9565b8411156124a9565b60405193611e2d85612140565b84526020928385019182526040850190815260608501916084358352608086019360a435855260a087019560c435875260c08801998a5260e088019889526004355f526005815260405f20975180519283116116bf57611e8d89546122a0565b601f8111611f84575b5081601f8411600114611f155750918060069896949260ff9a9896945f92611f0a575b50508160011b915f199060031b1c19161786555b5160018601555160028501555160038401555160048301555160058201550192511661ff0083549251151560081b169161ffff1916171790555f80f35b015190508c80611eb9565b9190601f1984168a5f52835f20935f905b828210611f6c57505092600192859260ff9c9a989660069c9a989610611f54575b505050811b018655611ecd565b01515f1960f88460031b161c191690558c8080611f47565b80600186978294978701518155019601940190611f26565b895f52825f20601f850160051c810191848610611fbd575b601f0160051c01905b818110611fb25750611e96565b5f8155600101611fa5565b9091508190611f9c565b3461157a57602036600319011261157a57611fe06120bf565b611fe86123f2565b5060018060a01b03165f52600660205261012061200760405f20612435565b61201460405180926120d5565bf35b3461157a57602036600319011261157a57600435612032612e3d565b805f52600560205260ff600660405f20015460081c1615612068575f908152600560205260409020600601805461ff0019169055005b60405162461bcd60e51b815260206004820152601460248201527356504e3a20706c616e206e6f742061637469766560601b6044820152606490fd5b3461157a575f36600319011261157a57806203f48060209252f35b600435906001600160a01b038216820361157a57565b60018060a01b0380825116835260208201511660208301526001600160601b036040820151166040830152606081015160608301526080810151608083015260a081015160a083015260c081015160c083015260e081015160e0830152610100809101511515910152565b61010081019081106001600160401b038211176116bf57604052565b6001600160401b0381116116bf57604052565b61012081019081106001600160401b038211176116bf57604052565b604081019081106001600160401b038211176116bf57604052565b90601f801991011681019081106001600160401b038211176116bf57604052565b9291926001600160401b0382116116bf57604051916121f0601f8201601f1916602001846121a6565b82948184528183011161157a578281602093845f960137010152565b9181601f8401121561157a578235916001600160401b03831161157a576020838186019501011161157a57565b91908251928382525f5b848110612263575050825f602080949584010152601f8019910116010190565b602081830181015184830182015201612243565b805482101561228c575f5260205f2001905f90565b634e487b7160e01b5f52603260045260245ffd5b90600182811c921680156122ce575b60208310146122ba57565b634e487b7160e01b5f52602260045260245ffd5b91607f16916122af565b80545f93926122e6826122a0565b918282526020936001916001811690815f1461234a575060011461230c575b5050505050565b90939495505f92919252835f2092845f945b83861061233657505050500101905f80808080612305565b80548587018301529401938590820161231e565b60ff19168685015250505090151560051b010191505f80808080612305565b9061016060031983011261157a576001600160a01b0391600435838116810361157a5792602435908116810361157a579160443591606435801515810361157a57916084359160a4359160c4359160e435906001600160401b03821161157a576123d59160040161220c565b90916101043560ff8116810361157a579061012435906101443590565b604051906123ff8261216f565b5f610100838281528260208201528260408201528260608201528260808201528260a08201528260c08201528260e08201520152565b906040516124428161216f565b61010060ff6007839560018060a01b038082541686526001820154908116602087015260a01c60408601526002810154606086015260038101546080860152600481015460a0860152600581015460c0860152600681015460e08601520154161515910152565b156124b057565b60405162461bcd60e51b815260206004820152601460248201527356504e3a20707269636520746f6f206c6172676560601b6044820152606490fd5b156124f357565b60405162461bcd60e51b815260206004820152601060248201526f2b28271d103737ba103932b630bcb2b960811b6044820152606490fd5b1561253257565b60405162461bcd60e51b81526020600482015260136024820152721594138e881b9bdd081cdd589cd8dc9a589959606a1b6044820152606490fd5b1561257457565b60405162461bcd60e51b815260206004820152600e60248201526d2b28271d103737ba1037bbb732b960911b6044820152606490fd5b156125b157565b60405162461bcd60e51b81526020600482015260166024820152751594138e88185b1c9958591e4818d85b98d95b1b195960521b6044820152606490fd5b156125f657565b60405162461bcd60e51b815260206004820152601260248201527156504e3a20696e76616c6964206e6f6e636560701b6044820152606490fd5b1561263757565b60405162461bcd60e51b815260206004820152601660248201527556504e3a20696e76616c6964207369676e617475726560501b6044820152606490fd5b5f19811461157e5760010190565b1561268a57565b60405162461bcd60e51b815260206004820152600f60248201526e56504e3a206e6f742061637469766560881b6044820152606490fd5b156126c857565b60405162461bcd60e51b815260206004820152601360248201527256504e3a206e6f7420616e207570677261646560681b6044820152606490fd5b1561270a57565b60405162461bcd60e51b815260206004820152601860248201527f56504e3a206e657720706c616e206e6f742061637469766500000000000000006044820152606490fd5b9190820391821161157e57565b8181029291811591840414171561157e57565b8115612779570490565b634e487b7160e01b5f52601260045260245ffd5b60018060a01b03165f52602060068152604091825f20600581015492428411936127b685612683565b60028301545f5260058252855f209360068751956127d387612140565b88516127e38161036c81856122d8565b87526001810154858801526002810154898801526003810154606088015260048101546080880152600581015460a088015201549460e060ff60c0830197818116895260081c1615159101525f5260058252855f20946128c187519561284887612140565b88516128588161036c818c6122d8565b87526128b960018901549786810198895260ff600660028c01549b8d84019c8d526003810154606085015260048101546080850152600581015460a08501520154938160e0818716948560c0820152019560081c16151585525116106126c1565b511515612703565b15612978576128d190429061274f565b945b85156129355750509260019261290092612905866129008560036129129a0154988993015460a01c61275c565b61276f565b961561292d57505161275c565b9080821115612927576129249161274f565b90565b50505f90565b90505161275c565b60649250519062461bcd60e51b82526004820152601960248201527f56504e3a20737562736372697074696f6e2065787069726564000000000000006044820152fd5b505f946128d3565b6001600160401b0381116116bf5760051b60200190565b1561299e57565b60405162461bcd60e51b815260206004820152601860248201527f56504e3a206175746f2072656e65772064697361626c656400000000000000006044820152606490fd5b156129ea57565b60405162461bcd60e51b815260206004820152601460248201527356504e3a2072656e6577616c206e6f742064756560601b6044820152606490fd5b9190820180921161157e57565b15612a3a57565b60405162461bcd60e51b815260206004820152601a60248201527f56504e3a2072656e6577616c2077696e646f77207061737365640000000000006044820152606490fd5b15612a8657565b60405162461bcd60e51b815260206004820152601960248201527f56504e3a2072656e6577656420746f6f20726563656e746c79000000000000006044820152606490fd5b805182101561228c5760209160051b010190565b9081602091031261157a5751801515810361157a5790565b15612afe57565b60405162461bcd60e51b81526020600482015260146024820152731594138e881d1c985b9cd9995c8819985a5b195960621b6044820152606490fd5b9060018060a01b03809216805f5260209260068452604093845f209460058601908154612b6881151561252b565b612b7860ff60078a015416612997565b612b84814210156129e3565b6203f480810180911161157e57612b9d90421115612a33565b600687016001815498612bb86114256003830154809c612a26565b0154858160a01c911695807f000000000000000000000000000000000000000000000000000000000000000016908451636eb1769f60e11b81528860048201523060248201528781604481865afa908115612e33575f91612e06575b5085516370a0823160e01b8152600481018a9052908882602481875afa918215612dfc579085915f93612dc9575b5010612d6d578311612d145760035485516323b872dd60e01b81526001600160a01b03808b16600483015291909216166024820152604481019290925285908290815f816064810103925af1908115612d0a5798612cce612ce0927f2b956d6196f460d042bd64fb7aa1d23596fcd80b7277ea28bb620c5d02381d8e98999a9b5f91612cf35750612af7565b84548042115f14612cee575042612a26565b9283914290555551908152a3565b612a26565b6108739150883d8a116108795761086b81836121a6565b83513d5f823e3d90fd5b505050507f76e7831add05a4be21a71ca22ce4c5d294b5e9b6063f7997654515c7a96c38479394959650606092915080601473696e73756666696369656e742062616c616e636560601b925193808552840152820152a3565b50505050507f76e7831add05a4be21a71ca22ce4c5d294b5e9b6063f7997654515c7a96c38479394959650606092915080601675696e73756666696369656e7420616c6c6f77616e636560501b925193808552840152820152a3565b8a809294508193503d8311612df5575b612de381836121a6565b8101031261157a57849051915f612c42565b503d612dd9565b87513d5f823e3d90fd5b90508781813d8311612e2c575b612e1d81836121a6565b8101031261157a57515f612c14565b503d612e13565b86513d5f823e3d90fd5b5f546001600160a01b03163303612e5057565b60405163118cdaa760e01b8152336004820152602490fd5b60ff5f5460a01c16612e7657565b60405163d93c066560e01b8152600490fd5b5f805160206133a38339815191526002815414612ea55760029055565b604051633ee5aeb560e01b8152600490fd5b604290612ec2612f7d565b906040519161190160f01b8352600283015260228201522090565b9060018060a01b038092165f52602091600860205260405f209260405180948591602082549182815201915f5260205f20935f905b828210612f6157505050612f28925003846121a6565b5f5b8351811015612f595781612f3e8286612acb565b511682841614612f5057600101612f2a565b50505050600190565b505050505f90565b8554871684526001958601958995509381019390910190612f12565b307f00000000000000000000000000000000000000000000000000000000000000006001600160a01b0316148061307e575b15612fd8577f000000000000000000000000000000000000000000000000000000000000000090565b60405160208101907f8b73c3c69bb8fe3d512ecc4cf759cc79239f7b179b0ffacaa9a75d522b39400f82527f000000000000000000000000000000000000000000000000000000000000000060408201527f000000000000000000000000000000000000000000000000000000000000000060608201524660808201523060a082015260a0815260c081018181106001600160401b038211176116bf5760405251902090565b507f00000000000000000000000000000000000000000000000000000000000000004614612faf565b81519190604183036130d7576130d09250602082015190606060408401519301515f1a90613320565b9192909190565b50505f9160029190565b600481101561315057806130f3575050565b6001810361310d5760405163f645eedf60e01b8152600490fd5b6002810361312e5760405163fce698f760e01b815260048101839052602490fd5b6003146131385750565b602490604051906335e2f38360e21b82526004820152fd5b634e487b7160e01b5f52602160045260245ffd5b60ff81146131a25760ff811690601f821161319057604051916131868361218b565b8252602082015290565b604051632cd44ac360e21b8152600490fd5b506040515f816001916001546131b7816122a0565b808452936020916001811690811561323f57506001146131e0575b5050612924925003826121a6565b91509260015f527fb10e2d527612073b26eecdfd717e6a320cf44b4afac2b0732d9fcbe2b7fa0cf6935f925b82841061322757506129249450505081016020015f806131d2565b8554878501830152948501948694509281019261320c565b9150506020925061292494915060ff191682840152151560051b8201015f806131d2565b60ff81146132855760ff811690601f821161319057604051916131868361218b565b50604051600254815f613297836122a0565b8083529260209060019081811690811561323f57506001146132c1575050612924925003826121a6565b91509260025f527f405787fa12a823e0f2b7631cc41b3ba8828b3321ca811111fa75cd3aa3bb5ace935f925b82841061330857506129249450505081016020015f806131d2565b855487850183015294850194869450928101926132ed565b91907f7fffffffffffffffffffffffffffffff5d576e7357a4501ddfe92f46681b20a08411613397579160209360809260ff5f9560405194855216868401526040830152606082015282805260015afa1561156f575f516001600160a01b0381161561338d57905f905f90565b505f906001905f90565b5050505f916003919056fe9b779b17422d0df92223018b32b4d1fa46e071723d6817e2486d003becc55f00a264697066735822122082404ed242461de6d5e54271a4fe4ba624d8896975e607855ee103b9d2887ca964736f6c63430008180033","linkReferences":{}},"methodIdentifiers":{"RENEWAL_GRACE_PERIOD()":"02e088d3","USDC_UNIT()":"4af28676","calculateUpgradeProration(address,uint256,bool)":"645e5d95","cancelFor(address,address,uint256,bytes)":"25ebaf41","cancelNonces(address)":"f5e47001","cancelSubscription(address)":"93d81d58","disablePlan(uint256)":"08cff7e2","eip712Domain()":"84b0196e","executeRenewal(address)":"bc247c8c","getPlan(uint256)":"26cd5274","getSubscription(address)":"0cbebc24","getUserActiveSubscriptions(address)":"af6c0b64","getUserIdentities(address)":"2203faa2","identityToOwner(address)":"4e118df5","intentNonces(address)":"bde7d84b","owner()":"8da5cb5b","pause()":"8456cb59","paused()":"5c975abb","permitAndSubscribe(address,address,uint256,bool,uint256,uint256,uint256,bytes,uint8,bytes32,bytes32)":"e1284768","plans(uint256)":"b1620616","relayer()":"8406c079","renewWithAuthorization(address,uint256,uint256,bytes32,uint8,bytes32,bytes32)":"8ddf0cfb","renounceOwnership()":"715018a6","serviceWallet()":"5641f3c3","setPlan(uint256,string,uint256,uint256,uint256,uint256,uint256,uint8,bool)":"15df774f","setRelayer(address)":"6548e9bc","setServiceWallet(address)":"23bffccc","subscriptions(address)":"f046395a","transferOwnership(address)":"f2fde38b","unpause()":"3f4ba83a","upgradeSubscription(address,address,uint256,bool,uint256,uint256,uint256,bytes,uint8,bytes32,bytes32)":"bc0a47d2","usdc()":"3e413bee","userIdentities(address,uint256)":"82e10e7f"},"id":34}